:020000040800F2
:10000000600600206D0100087501000877010008F6
:10001000790100087B0100087D0100080000000054
:100020000000000000000000000000007F01000848
:10003000810100080000000083010008850100081C
:100040008701000887010008870100088701000870
:100050008701000887010008870100088701000860
:100060008701000887010008870100088701000850
:100070008701000887010008870100088701000840
:100080008701000887010008870100088701000830
:100090008701000887010008870100088701000820
:1000A0008701000887010008870100088701000810
:1000B0008701000887010008870100088701000800
:1000C00087010008870100088701000887010008F0
:1000D00087010008870100088701000887010008E0
:1000E00087010008870100088701000800F002F876
:1000F00000F02CF80AA090E8000C82448344AAF196
:100100000107DA4501D100F021F8AFF2090EBAE893
:100110000F0013F0010F18BFFB1A43F0010318473B
:10012000500700006007000000230024002500267F
:10013000103A28BF78C1FBD8520728BF30C148BF4A
:100140000B6070471FB51FBD10B510BD00F031F832
:100150001146FFF7F7FF00F009FA00F04FF803B47B
:10016000FFF7F2FF03BC00F057F800000948804792
:1001700009480047FEE7FEE7FEE7FEE7FEE7FEE789
:10018000FEE7FEE7FEE7FEE704480549054A064BA1
:100190007047000005050008ED0000086000002021
:1001A0006006002060020020600200207047704757
:1001B0007047754600F02CF8AE4605006946534678
:1001C00020F00700854618B020B5FFF7DDFFBDE839
:1001D00020404FF000064FF000074FF000084FF0AE
:1001E000000BAC46ACE8C009ACE8C009ACE8C009FB
:1001F000ACE8C00921F007018D46704710B50446F0
:10020000AFF300802046BDE81040FFF7A8BF000014
:10021000004870470000002001491820ABBEFEE7EF
:10022000260002007047000041F21801C4F20201EA
:10023000086840F01C00086040F60001C4F20101AB
:10024000086840F6FF7290430860086840F688022C
:100250001043086040F60042C4F2010210684FF6F5
:100260000071C0F20F010840106040F60441C4F272
:100270000101086820F00F00086010681123C1F226
:10028000101318431060086840F00100086041F244
:100290000401C4F20101086820F07F60086008686A
:1002A00040F088700860704741F20001C4F202011A
:1002B000086840F480300860FFE741F20000C4F2B3
:1002C000020000688003002801D4FFE7F5E741F24F
:1002D0000401C4F20201086820F47C100860086878
:1002E00040F4E810086041F20001C4F2020108681D
:1002F00040F080700860FFE741F20000C4F20200A5
:1003000000688001002801D4FFE7F5E741F204010D
:10031000C4F20201086843F6F3729043086008686B
:1003200040F2024210430860FFE741F20400C4F2C9
:100330000200006800F00C00082801D0FFE7F4E795
:100340007047000080B500F001F880BD84B0002047
:100350000390029041F20001C4F20201086840F4E7
:1003600080300860FFE741F20000C4F2020000683C
:1003700000F400300290039801300390FFE70299E7
:100380000020019039B9FFE70398B0F5A06018BFCD
:1003900001200190FFE70198C0070028E3D1FFE7A3
:1003A00041F20000C4F2020000688003002803D577
:1003B000FFE70120029002E000200290FFE7029890
:1003C000012851D1FFE742F20001C4F2020108689E
:1003D00040F010000860086820F007000860086816
:1003E00040F00200086041F20401C4F202010091F1
:1003F0000868086008680860086840F48060086061
:10040000086820F47C100860086840F4E810086070
:1004100041F20001C4F20201086840F080700860F7
:10042000FFE741F20000C4F20200006880010028EA
:1004300001D4FFE7F5E741F20401C4F202010868C4
:1004400020F003000860086840F002000860FFE741
:1004500041F20400C4F20200006800F00C00082819
:1004600001D0FFE7F4E700E0FFE704B070470000C9
:100470004EF21001CEF20001002008604EF214038B
:10048000CEF200036FF07F421A604EF21802CEF2F5
:1004900000021060052008607047000081B00090E5
:1004A000009801384EF21401CEF2000108604EF2BD
:1004B0001801CEF2000100200860FFE74EF21000A4
:1004C000CEF200000068C003002801D4FFE7F5E782
:1004D00001B0704780B582B0019000200090FFE726
:1004E0000098019988420BD2FFE74FF68040C0F296
:1004F0000A00FFF7D3FFFFE7009801300090EFE715
:1005000002B080BD80B541F20002C4F20202106860
:1005100040F00100106041F20401C4F202010868D9
:100520000023CFF6FF031840086010684FF6FF73F2
:10053000CFF6F66318401060106820F48020106039
:10054000086820F4FE00086041F20801C4F20201CC
:100550004FF41F000860FFF7F5FE4EF60851CEF28B
:1005600000014FF00060086080BD000080B586B0DB
:10057000002002900590FFF797FEFFF779FFFFF745
:1005800053FE02980490FFE740F60C43C4F20103C7
:10059000186840F2E3118843049A2C21019102FB70
:1005A00001FC40F20862C0F60002009252F80CC052
:1005B00040EA0C00186041F20C03C4F20103186811
:1005C00020F4C040DDF810C00CFB012CDCF804C0A6
:1005D00040EA0C001860049800FB01208068FFF7D7
:1005E00079FF009A019940F60800C4F20100006802
:1005F00000F007000390049800FB0120039900EB32
:100600008100C0680490BFE70101000000200000E5
:10061000C800000000000000010000000000000011
:1006200001000000010000000100000001000000C6
:100630000100000002010000002000006400000032
:1006400002000000020000000200000002000000A2
:100650000200000002000000020000000200000092
:100660002001000000200000320000000300000014
:10067000030000000000000003000000060000006E
:1006800003000000060000000300000060000000FE
:1006900000200000C800000003000000030000006C
:1006A000040000000400000004000000040000003A
:1006B0000400000004000000A00000000020000072
:1006C00064000000050000000500000005000000B7
:1006D0000500000005000000050000000500000006
:1006E0000500000020010000002000003200000092
:1006F00000000000030000000000000006000000F1
:1007000006000000060000000600000006000000D1
:100710002001000000400000C800000006000000AA
:1007200007000000070000000700000006000000AE
:100730000700000007000000070000002001000083
:100740000020000028000000080000000800000051
:100750000800000008000000080000000800000079
:100760000800000008000000200100000000000058
:100770002800000009000000090000000900000036
:100780000900000009000000090000000900000045
:1007900009000000200100000020000028000000E7
:1007A0000A0000000A0000000A0000000A00000021
:1007B0000A0000000A0000000A0000000A00000011
:1007C0002001000000000000280000000B000000D5
:1007D0000B0000000B0000000B0000000B000000ED
:1007E0000B0000000B0000000B00000020010000C7
:1007F00000200000280000000C0000000C00000099
:100800000C0000000C0000000C0000000C000000B8
:100810000C0000000C00000020010000000000009F
:10082000280000000D0000000D0000000D00000079
:100830000D0000000D0000000D0000000D00000084
:100840000D00000020010000002000003200000028
:100850000000000003000000000000000000000095
:10086000060000000300000000000000000000007F
:100870008008000800000020600600002801000831
:040000050800016D81
:00000001FF
